{
  "abi": [
    {
      "anonymous": false,
      "inputs": [
        {
          "indexed": true,
          "internalType": "address",
          "name": "validator",
          "type": "address"
        },
        {
          "indexed": true,
          "internalType": "address",
          "name": "delegator",
          "type": "address"
        },
        {
          "indexed": false,
          "internalType": "uint256",
          "name": "amount",
          "type": "uint256"
        }
      ],
      "name": "DelegationAdded",
      "type": "event"
    },
    {
      "anonymous": false,
      "inputs": [
        {
          "indexed": true,
          "internalType": "address",
          "name": "validator",
          "type": "address"
        },
        {
          "indexed": true,
          "internalType": "address",
          "name": "delegator",
          "type": "address"
        },
        {
          "indexed": false,
          "internalType": "uint256",
          "name": "amount",
          "type": "uint256"
        }
      ],
      "name": "DelegationRemoved",
      "type": "event"
    },
    {
      "anonymous": false,
      "inputs": [
        {
          "indexed": true,
          "internalType": "address",
          "name": "validator",
          "type": "address"
        },
        {
          "indexed": true,
          "internalType": "address",
          "name": "recipient",
          "type": "address"
        },
        {
          "indexed": false,
          "internalType": "uint256",
          "name": "amount",
          "type": "uint256"
        }
      ],
      "name": "DelegationWithdrawn",
      "type": "event"
    },
    {
      "anonymous": false,
      "inputs": [
        {
          "indexed": false,
          "internalType": "uint8",
          "name": "version",
          "type": "uint8"
        }
      ],
      "name": "Initialized",
      "type": "event"
    },
    {
      "anonymous": false,
      "inputs": [
        {
          "indexed": true,
          "internalType": "address",
          "name": "validator",
          "type": "address"
        },
        {
          "indexed": false,
          "internalType": "uint256",
          "name": "amount",
          "type": "uint256"
        }
      ],
      "name": "StakeAdded",
      "type": "event"
    },
    {
      "anonymous": false,
      "inputs": [
        {
          "indexed": true,
          "internalType": "address",
          "name": "validator",
          "type": "address"
        },
        {
          "indexed": false,
          "internalType": "uint256",
          "name": "amount",
          "type": "uint256"
        }
      ],
      "name": "StakeRemoved",
      "type": "event"
    },
    {
      "anonymous": false,
      "inputs": [
        {
          "indexed": true,
          "internalType": "address",
          "name": "validator",
          "type": "address"
        },
        {
          "indexed": true,
          "internalType": "address",
          "name": "recipient",
          "type": "address"
        },
        {
          "indexed": false,
          "internalType": "uint256",
          "name": "amount",
          "type": "uint256"
        }
      ],
      "name": "StakeWithdrawn",
      "type": "event"
    },
    {
      "anonymous": false,
      "inputs": [
        {
          "indexed": true,
          "internalType": "address",
          "name": "validator",
          "type": "address"
        },
        {
          "indexed": false,
          "internalType": "uint256",
          "name": "amount",
          "type": "uint256"
        }
      ],
      "name": "ValidatorStakeSlashed",
      "type": "event"
    },
    {
      "inputs": [
        {
          "internalType": "address",
          "name": "validator",
          "type": "address"
        },
        {
          "internalType": "uint256",
          "name": "amount",
          "type": "uint256"
        }
      ],
      "name": "addStake",
      "outputs": [],
      "stateMutability": "nonpayable",
      "type": "function"
    },
    {
      "inputs": [
        {
          "internalType": "address",
          "name": "validator",
          "type": "address"
        },
        {
          "internalType": "address",
          "name": "delegator",
          "type": "address"
        },
        {
          "internalType": "uint256",
          "name": "amount",
          "type": "uint256"
        }
      ],
      "name": "delegateFor",
      "outputs": [],
      "stateMutability": "nonpayable",
      "type": "function"
    },
    {
      "inputs": [
        {
          "internalType": "address",
          "name": "validator",
          "type": "address"
        }
      ],
      "name": "delegationOf",
      "outputs": [
        {
          "internalType": "uint256",
          "name": "amount",
          "type": "uint256"
        }
      ],
      "stateMutability": "view",
      "type": "function"
    },
    {
      "inputs": [
        {
          "internalType": "address",
          "name": "_registryManager",
          "type": "address"
        },
        {
          "internalType": "uint256",
          "name": "_minStake",
          "type": "uint256"
        },
        {
          "internalType": "uint256",
          "name": "_minDelegate",
          "type": "uint256"
        }
      ],
      "name": "initialize",
      "outputs": [],
      "stateMutability": "nonpayable",
      "type": "function"
    },
    {
      "inputs": [],
      "name": "minDelegate",
      "outputs": [
        {
          "internalType": "uint256",
          "name": "",
          "type": "uint256"
        }
      ],
      "stateMutability": "view",
      "type": "function"
    },
    {
      "inputs": [],
      "name": "minStake",
      "outputs": [
        {
          "internalType": "uint256",
          "name": "",
          "type": "uint256"
        }
      ],
      "stateMutability": "view",
      "type": "function"
    },
    {
      "inputs": [],
      "name": "registryManager",
      "outputs": [
        {
          "internalType": "contract IRegistryManager",
          "name": "",
          "type": "address"
        }
      ],
      "stateMutability": "view",
      "type": "function"
    },
    {
      "inputs": [
        {
          "internalType": "address",
          "name": "validator",
          "type": "address"
        },
        {
          "internalType": "address",
          "name": "delegator",
          "type": "address"
        },
        {
          "internalType": "uint256",
          "name": "amount",
          "type": "uint256"
        }
      ],
      "name": "releaseDelegationOf",
      "outputs": [],
      "stateMutability": "nonpayable",
      "type": "function"
    },
    {
      "inputs": [
        {
          "internalType": "address",
          "name": "validator",
          "type": "address"
        },
        {
          "internalType": "uint256",
          "name": "amount",
          "type": "uint256"
        }
      ],
      "name": "releaseStakeOf",
      "outputs": [],
      "stateMutability": "nonpayable",
      "type": "function"
    },
    {
      "inputs": [
        {
          "internalType": "address",
          "name": "validator",
          "type": "address"
        },
        {
          "internalType": "uint256",
          "name": "amount",
          "type": "uint256"
        }
      ],
      "name": "slashStakeOf",
      "outputs": [],
      "stateMutability": "nonpayable",
      "type": "function"
    },
    {
      "inputs": [
        {
          "components": [
            {
              "internalType": "address",
              "name": "owner",
              "type": "address"
            },
            {
              "internalType": "uint256",
              "name": "stakeAmount",
              "type": "uint256"
            },
            {
              "internalType": "uint256",
              "name": "commissionRate",
              "type": "uint256"
            },
            {
              "internalType": "bytes",
              "name": "pubKey",
              "type": "bytes"
            },
            {
              "internalType": "bytes",
              "name": "blsKey",
              "type": "bytes"
            }
          ],
          "internalType": "struct ValidatorStake",
          "name": "stake",
          "type": "tuple"
        }
      ],
      "name": "stakeFor",
      "outputs": [],
      "stateMutability": "nonpayable",
      "type": "function"
    },
    {
      "inputs": [
        {
          "internalType": "address",
          "name": "validator",
          "type": "address"
        }
      ],
      "name": "stakeOf",
      "outputs": [
        {
          "internalType": "uint256",
          "name": "amount",
          "type": "uint256"
        }
      ],
      "stateMutability": "view",
      "type": "function"
    },
    {
      "inputs": [],
      "name": "totalDelegation",
      "outputs": [
        {
          "internalType": "uint256",
          "name": "amount",
          "type": "uint256"
        }
      ],
      "stateMutability": "view",
      "type": "function"
    },
    {
      "inputs": [],
      "name": "totalStake",
      "outputs": [
        {
          "internalType": "uint256",
          "name": "amount",
          "type": "uint256"
        }
      ],
      "stateMutability": "view",
      "type": "function"
    },
    {
      "inputs": [
        {
          "internalType": "address",
          "name": "validator",
          "type": "address"
        }
      ],
      "name": "validatorDelegationOf",
      "outputs": [
        {
          "internalType": "uint256",
          "name": "amount",
          "type": "uint256"
        }
      ],
      "stateMutability": "view",
      "type": "function"
    },
    {
      "inputs": [
        {
          "internalType": "address",
          "name": "validator",
          "type": "address"
        },
        {
          "internalType": "address",
          "name": "to",
          "type": "address"
        },
        {
          "internalType": "uint256",
          "name": "amount",
          "type": "uint256"
        }
      ],
      "name": "withdrawDelegation",
      "outputs": [],
      "stateMutability": "nonpayable",
      "type": "function"
    },
    {
      "inputs": [
        {
          "internalType": "address",
          "name": "validator",
          "type": "address"
        },
        {
          "internalType": "address",
          "name": "to",
          "type": "address"
        },
        {
          "internalType": "uint256",
          "name": "amount",
          "type": "uint256"
        }
      ],
      "name": "withdrawStake",
      "outputs": [],
      "stateMutability": "nonpayable",
      "type": "function"
    },
    {
      "inputs": [
        {
          "internalType": "address",
          "name": "validator",
          "type": "address"
        }
      ],
      "name": "withdrawableDelegation",
      "outputs": [
        {
          "internalType": "uint256",
          "name": "amount",
          "type": "uint256"
        }
      ],
      "stateMutability": "view",
      "type": "function"
    },
    {
      "inputs": [
        {
          "internalType": "address",
          "name": "validator",
          "type": "address"
        }
      ],
      "name": "withdrawableStake",
      "outputs": [
        {
          "internalType": "uint256",
          "name": "amount",
          "type": "uint256"
        }
      ],
      "stateMutability": "view",
      "type": "function"
    }
  ],
  "bytecode": {
    "object": "0x6080806040523461001657611c5e908161001c8239f35b600080fdfe6080604052600436101561001257600080fd5b6000803560e01c80630c1e8bf7146114d95780630c63109e146114b05780633651bb1d1461139c578063375b3c0a1461137e5780633d9a6dcb14611146578063426233601461110d57806345255c05146110ef578063512b91b614610c6c5780635a601d911461098c5780636374299e146107b757806374bbe1c8146105095780637a1ac61e146103c35780638028a6db146102285780638b0e9f3f1461020a578063d5364bbf146101d1578063e3c3ae58146101b3578063ef86e74c1461017a578063f7b9a9a2146101355763f837123e146100ee57600080fd5b34610132576020366003190112610132576040906001600160a01b036101126114f4565b168152600560205220336000526020526020604060002054604051908152f35b80fd5b5034610132576020366003190112610132576040906001600160a01b0361015a6114f4565b168152600860205220336000526020526020604060002054604051908152f35b5034610132576020366003190112610132576020906040906001600160a01b036101a26114f4565b168152600483522054604051908152f35b50346101325780600319360112610132576020600254604051908152f35b5034610132576020366003190112610132576020906040906001600160a01b036101f96114f4565b168152600683522054604051908152f35b50346101325780600319360112610132576020600154604051908152f35b5034610132576040366003190112610132576102426114f4565b603b54604051637c8211ff60e11b815230600482015260209260248035936001600160a01b039081169390918690829081875afa80156103b85786918891610384575b5060246040518096819363199d7a1760e11b835260048301525afa938415610379576102df827f2fd10b18da60ce9090915fbb72edd4d6550168ad1915bd58038d803b9faba2d79688968a9161034c575b501633146115e2565b80918316958691828952600382526040892054809111610344575b610333848661032c847fa018dcbc822f59fb0d0c3e7a86c8e4259b9676cdea9e5fc26279b9c4c5d86eef979899611825565b33906116ad565b604051908152a2604051908152a280f35b9250826102fa565b61036c9150873d8911610372575b61036481836115a1565b8101906115c3565b386102d6565b503d61035a565b6040513d88823e3d90fd5b82819392503d83116103b1575b61039b81836115a1565b810103126103ac5785905138610285565b600080fd5b503d610391565b6040513d89823e3d90fd5b5034610132576060366003190112610132576103dd6114f4565b81549060ff8260081c1615918280936104fc575b80156104e5575b156104895760ff198116600117845582610478575b5060018060a01b03166bffffffffffffffffffffffff60a01b603b541617603b55602435603c55604435603d556104415780f35b61ff001981541681557f7f26b83ff96e1f2b6a682f133852f6798a09c465da95921460cefb3847402498602060405160018152a180f35b61ffff19166101011783553861040d565b60405162461bcd60e51b815260206004820152602e60248201527f496e697469616c697a61626c653a20636f6e747261637420697320616c72656160448201526d191e481a5b9a5d1a585b1a5e995960921b6064820152608490fd5b50303b1580156103f85750600160ff8216146103f8565b50600160ff8216106103f1565b5034610132576105183661150a565b9190603d54831061077257603b54604051637c8211ff60e11b8152306004820152926020916001600160a01b039190602490831684878381845afa968715610738578997610743575b508482916040519283809263ea78803f60e01b82528b60048301525afa9081156107385761059e9189918b9161071b575b5030908633911661192f565b8282169586895260048552604089205488810180911161070857878a526004865260408a2055600585526040892033600052855260406000205488810180911161070857878a526005865260408a203360005286526040600020556002548881018091116107085789939291869160025585603b5416926040518094819363199d7a1760e11b835260048301525afa80156106fd57849184916106e0575b5016803b156106dc57604051632862c41560e21b81526001600160a01b03928316600482015291861660248301526044820188905282908290606490829084905af180156106d1576106b9575b50507f52467f14b857734001c77e6f125dac41b45798837c9fc9adfe3a5b394c77a0e9926040519586521693a380f35b6106c29061153f565b6106cd578538610689565b8580fd5b6040513d84823e3d90fd5b8280fd5b6106f79150863d88116103725761036481836115a1565b3861063c565b6040513d85823e3d90fd5b634e487b7160e01b8a526011600452828afd5b6107329150873d89116103725761036481836115a1565b38610592565b6040513d8b823e3d90fd5b9096508481813d831161076b575b61075b81836115a1565b810103126103ac57519584610561565b503d610751565b60405162461bcd60e51b815260206004820152601760248201527f494e56414c49445f44454c45474154455f414d4f554e540000000000000000006044820152606490fd5b5034610132576040366003190112610132576107d16114f4565b60243560018060a01b038083169283855260209160038352604086205415610947579085916108008583611982565b80603b5416604051637c8211ff60e11b81523060048201528581602481855afa801561093c578691869161090c575b5060246040518094819363199d7a1760e11b835260048301525afa9081156109015784916108e4575b5016803b156106dc57604051637367209f60e11b81526001600160a01b039290921660048301526024820185905282908290604490829084905af180156106d1576108cc575b50507f7c717985ac273e663b7f3050f5b15a4388ff6ed952338954f650e2093e13937f91604051908152a280f35b6108d59061153f565b6108e057833861089e565b8380fd5b6108fb9150853d87116103725761036481836115a1565b38610858565b6040513d86823e3d90fd5b95505084813d8311610935575b61092381836115a1565b810103126103ac57848894513861082f565b503d610919565b6040513d87823e3d90fd5b60405162461bcd60e51b815260048101849052601f60248201527f5374616b654d616e616765723a20494e56414c49445f56414c494441544f52006044820152606490fd5b50346101325761099b3661150a565b603b54604051637c8211ff60e11b815230600482015292936001600160a01b0393602093928516908481602481855afa8015610c615785918991610c32575b5060246040518094819363199d7a1760e11b835260048301525afa9182156103b857610a1586610b7f9481948b91610c1b57501633146115e2565b169384875260048452604087205490610a8a604051610a3381611585565b603c8152857f72656d6f76652064656c65676174696f6e20616d6f756e7420657863656564739485898401527f2076616c696461746f722064656c65676174696f6e20616d6f756e74000000006040840152611a5b565b8689526004865260408920556005855260408820961695866000528452610b246040600020548460405191610abe83611569565b604983527f72656d6f76652064656c65676174696f6e20616d6f756e74206f662064656c65888401527f6761746f7220657863656564732064656c656761746f722064656c65676174696040840152681bdb88185b5bdd5b9d60ba1b6060840152611a5b565b85885260058552604088208760005285526040600020558260025460405192610b4c84611585565b60388452868401527f20746f74616c2064656c65676174696f6e20616d6f756e7400000000000000006040840152611a5b565b600255828552600782526040852054818101809111610c07578386526007835260408620556008825260408520846000528252604060002054818101809111610c0757907fbf340c6e47f6acc1fa5fcad9ef75c1e4bd8d91e7313667c3c9859f230fc7f88392918487526008835260408720866000528352604060002055604051908152a380f35b634e487b7160e01b86526011600452602486fd5b61036c9150883d8a116103725761036481836115a1565b82819392503d8311610c5a575b610c4981836115a1565b810103126103ac57849051386109da565b503d610c3f565b6040513d8a823e3d90fd5b50346101325760203660031901126101325760043567ffffffffffffffff8111610f475760a06003198236030112610f4757603c546024820135106110b357606460448201351161106e576040610cc9606483018360040161163d565b905003611031576030610ce2608483018360040161163d565b905003610ff657603b54604051637c8211ff60e11b815230600482015291906001600160a01b0316602083602481845afa928315610901578493610fc1575b5060206024916040519283809263ea78803f60e01b82528760048301525afa801561090157610d6a918591610fa2575b50602483013590309033906001600160a01b031661192f565b82610d7b606483018360040161163d565b9190610d8683611670565b92610d9460405194856115a1565b80845236818301116106dc578060209283860137830101526040815103610f6a5780516020909101206001600160a01b031691610dd5602483013584611982565b603b5460405163199d7a1760e11b81526004810192909252602090829060249082906001600160a01b03165afa908115610901578491610f4b575b5060048201359084906001600160a01b0383168303610f4757610e39606485018560040161163d565b919093610e4c608487018760040161163d565b90936001600160a01b0384163b156106cd57610ec688958793610eb460449a8d956040519c8d9b8c9a8b9963601a943d60e01b8b5260048b015260018060a01b031660248a01526024810135828a01520135606488015260c0608488015260c487019161168c565b8481036003190160a48601529161168c565b03926001600160a01b03165af1801561090157610f11575b5060207f7c717985ac273e663b7f3050f5b15a4388ff6ed952338954f650e2093e13937f9160246040519101358152a280f35b7f7c717985ac273e663b7f3050f5b15a4388ff6ed952338954f650e2093e13937f9193610f3f60209261153f565b939150610ede565b5080fd5b610f64915060203d6020116103725761036481836115a1565b38610e10565b60405162461bcd60e51b815260206004820152601060248201526f6e6f74206563647361207075624b657960801b6044820152606490fd5b610fbb915060203d6020116103725761036481836115a1565b38610d51565b9092506020813d602011610fee575b81610fdd602093836115a1565b810103126108e05751916020610d21565b3d9150610fd0565b60405162461bcd60e51b8152602060048201526013602482015272494e56414c4944415f424c535f5055424b455960681b6044820152606490fd5b60405162461bcd60e51b8152602060048201526015602482015274494e56414c4944415f45434453415f5055424b455960581b6044820152606490fd5b60405162461bcd60e51b815260206004820152601760248201527f494e56414c49445f434f4d4d495353494f4e5f524154450000000000000000006044820152606490fd5b60405162461bcd60e51b81526020600482015260146024820152731253959053125117d4d51052d157d05353d5539560621b6044820152606490fd5b50346101325780600319360112610132576020603d54604051908152f35b5034610132576020366003190112610132576020906040906001600160a01b036111356114f4565b168152600383522054604051908152f35b5034610132576111553661150a565b919060018060a01b038092169182855260209060078252611285604087205461120060405161118381611569565b605b8152887f72656d6f766520776974686472617761626c652064656c65676174696f6e20619384888401527f6d6f756e74206578636565647320746f74616c20616d6f756e74206f6620766160408401527f6c696461746f722077697468647261772064656c65676174696f6e00000000006060840152611a5b565b868952600785526040892055600884526040882033895284528660408920546040519261122c84611569565b605b8452868401527f6d6f756e74206578636565647320746f74616c20616d6f756e74206f6620646560408401527f6c656761746f722077697468647261772064656c65676174696f6e00000000006060840152611a5b565b84875260088352604087203388528352604087205580603b541692604051637c8211ff60e11b81523060048201528381602481885afa8015610c61578491899161134b575b5060246040518097819363ea78803f60e01b835260048301525afa80156103b857868284611322937faa0001b0e2e76b9a1b925257fefa58b756aebc52d2d7c8a85ea5beacc77a2100988c9161132e575b50166119d9565b6040519586521693a380f35b6113459150883d8a116103725761036481836115a1565b3861131b565b82819392503d8311611377575b61136281836115a1565b8101031261137357839051386112ca565b8780fd5b503d611358565b50346101325780600319360112610132576020603c54604051908152f35b5034610132576040366003190112610132576113b66114f4565b603b54604051637c8211ff60e11b815230600482015260248035936001600160a01b039384169360209390928490829081885afa80156103b8578491889161147d575b5060246040518097819363199d7a1760e11b835260048301525afa80156103795782611450917fa018dcbc822f59fb0d0c3e7a86c8e4259b9676cdea9e5fc26279b9c4c5d86eef96899161146657501633146115e2565b61145a8582611825565b6040519485521692a280f35b61036c9150863d88116103725761036481836115a1565b82819392503d83116114a9575b61149481836115a1565b810103126114a557839051386113f9565b8680fd5b503d61148a565b5034610132578060031936011261013257603b546040516001600160a01b039091168152602090f35b5034610132576114f16114eb3661150a565b916116ad565b80f35b600435906001600160a01b03821682036103ac57565b60609060031901126103ac576001600160a01b039060043582811681036103ac579160243590811681036103ac579060443590565b67ffffffffffffffff811161155357604052565b634e487b7160e01b600052604160045260246000fd5b6080810190811067ffffffffffffffff82111761155357604052565b6060810190811067ffffffffffffffff82111761155357604052565b90601f8019910116810190811067ffffffffffffffff82111761155357604052565b908160209103126103ac57516001600160a01b03811681036103ac5790565b156115e957565b60405162461bcd60e51b815260206004820152602660248201527f5374616b654d616e616765723a204f4e4c595f4348494c445f434841494e5f4d60448201526520a720a3a2a960d11b6064820152608490fd5b903590601e19813603018212156103ac570180359067ffffffffffffffff82116103ac576020019181360383136103ac57565b67ffffffffffffffff811161155357601f01601f191660200190565b908060209392818452848401376000828201840152601f01601f1916010190565b92919060018060a01b038094169060009482865260209160068352604061172981892054878351916116de83611585565b603583527f72656d6f766520776974686472617761626c65207374616b6520616d6f756e74888401527408195e18d959591cc81d1bdd185b08185b5bdd5b9d605a1b85840152611a5b565b858952600685528189205582603b54168151637c8211ff60e11b81523060048201528581602481855afa90811561181b579086918b916117e8575b50602484518094819363ea78803f60e01b835260048301525afa9081156117de579683856117be937fb7c918e0e249f999e965cafeb6c664271b3f4317d296461500e71da39f0cbda3999a849c9d916117c75750166119d9565b519586521693a3565b6113459150893d8b116103725761036481836115a1565b82513d8b823e3d90fd5b82819392503d8311611814575b6117ff81836115a1565b810103126118105785905138611764565b8980fd5b503d6117f5565b83513d8c823e3d90fd5b60018060a01b03166000818152602060038152604092611897848420548686519161184f83611585565b603283527f72656d6f7665207374616b6520616d6f756e7420657863656564732076616c69868401527119185d1bdc881cdd185ad948185b5bdd5b9d60721b88840152611a5b565b81845260038352848420556118f9600154868651916118b583611585565b602e83527f72656d6f7665207374616b6520616d6f756e74206578636565647320746f7461868401526d1b081cdd185ad948185b5bdd5b9d60921b88840152611a5b565b600155808352600682528383205494850180951161191b578252600690522055565b634e487b7160e01b83526011600452602483fd5b6040516323b872dd60e01b60208201526001600160a01b03928316602482015292909116604483015260648201929092526119809161197b82608481015b03601f1981018452836115a1565b611a89565b565b6001600160a01b0316600081815260036020526040812054909183820191821061191b578252600360205260408220556001549182018092116119c55750600155565b634e487b7160e01b81526011600452602490fd5b60405163a9059cbb60e01b60208201526001600160a01b03909216602483015260448201929092526119809161197b826064810161196d565b6020808252825181830181905290939260005b828110611a4757505060409293506000838284010152601f8019910116010190565b818101860151848201604001528501611a25565b9091818311611a6957500390565b60405162461bcd60e51b8152908190611a859060048301611a12565b0390fd5b60018060a01b031690604051604081019080821067ffffffffffffffff83111761155357611b19916040526020938482527f5361666545524332303a206c6f772d6c6576656c2063616c6c206661696c6564858301526000808587829751910182855af13d15611baf573d91611afe83611670565b92611b0c60405194856115a1565b83523d868885013e611bb3565b805191821591848315611b8b575b505050905015611b345750565b6084906040519062461bcd60e51b82526004820152602a60248201527f5361666545524332303a204552433230206f7065726174696f6e20646964206e6044820152691bdd081cdd58d8d9595960b21b6064820152fd5b919381809450010312610f4757820151908115158203610132575080388084611b27565b6060915b91929015611c155750815115611bc7575090565b3b15611bd05790565b60405162461bcd60e51b815260206004820152601d60248201527f416464726573733a2063616c6c20746f206e6f6e2d636f6e74726163740000006044820152606490fd5b825190915015611a695750805190602001fdfea264697066735822122010986b34ce6d8d1313e26b2d7b5ae50b32574f793d51a7402090297d0842139664736f6c63430008160033",
    "linkReferences": {}
  },
  "methodIdentifiers": {
    "addStake(address,uint256)": "6374299e",
    "delegateFor(address,address,uint256)": "74bbe1c8",
    "delegationOf(address)": "f837123e",
    "initialize(address,uint256,uint256)": "7a1ac61e",
    "minDelegate()": "45255c05",
    "minStake()": "375b3c0a",
    "registryManager()": "0c63109e",
    "releaseDelegationOf(address,address,uint256)": "5a601d91",
    "releaseStakeOf(address,uint256)": "3651bb1d",
    "slashStakeOf(address,uint256)": "8028a6db",
    "stakeFor((address,uint256,uint256,bytes,bytes))": "512b91b6",
    "stakeOf(address)": "42623360",
    "totalDelegation()": "e3c3ae58",
    "totalStake()": "8b0e9f3f",
    "validatorDelegationOf(address)": "ef86e74c",
    "withdrawDelegation(address,address,uint256)": "3d9a6dcb",
    "withdrawStake(address,address,uint256)": "0c1e8bf7",
    "withdrawableDelegation(address)": "f7b9a9a2",
    "withdrawableStake(address)": "d5364bbf"
  },
  "id": 122
}